{
  "_format": "hh-sol-artifact-1",
  "contractName": "CrowdFunding",
  "sourceName": "contracts/CrowdFunding.sol",
  "abi": [
    {
      "anonymous": false,
      "inputs": [
        {
          "indexed": true,
          "internalType": "uint256",
          "name": "id",
          "type": "uint256"
        },
        {
          "indexed": true,
          "internalType": "address",
          "name": "owner",
          "type": "address"
        },
        {
          "indexed": false,
          "internalType": "string",
          "name": "title",
          "type": "string"
        },
        {
          "indexed": false,
          "internalType": "uint256",
          "name": "target",
          "type": "uint256"
        },
        {
          "indexed": false,
          "internalType": "uint256",
          "name": "deadline",
          "type": "uint256"
        }
      ],
      "name": "CampaignCreated",
      "type": "event"
    },
    {
      "anonymous": false,
      "inputs": [
        {
          "indexed": true,
          "internalType": "uint256",
          "name": "id",
          "type": "uint256"
        },
        {
          "indexed": true,
          "internalType": "address",
          "name": "donator",
          "type": "address"
        },
        {
          "indexed": false,
          "internalType": "uint256",
          "name": "amount",
          "type": "uint256"
        }
      ],
      "name": "DonationReceived",
      "type": "event"
    },
    {
      "anonymous": false,
      "inputs": [
        {
          "indexed": true,
          "internalType": "uint256",
          "name": "id",
          "type": "uint256"
        },
        {
          "indexed": false,
          "internalType": "bool",
          "name": "isHidden",
          "type": "bool"
        }
      ],
      "name": "VisibilityToggled",
      "type": "event"
    },
    {
      "inputs": [
        {
          "internalType": "uint256",
          "name": "",
          "type": "uint256"
        }
      ],
      "name": "campaigns",
      "outputs": [
        {
          "internalType": "address",
          "name": "owner",
          "type": "address"
        },
        {
          "internalType": "string",
          "name": "title",
          "type": "string"
        },
        {
          "internalType": "string",
          "name": "description",
          "type": "string"
        },
        {
          "internalType": "string",
          "name": "image",
          "type": "string"
        },
        {
          "internalType": "uint256",
          "name": "target",
          "type": "uint256"
        },
        {
          "internalType": "uint256",
          "name": "deadline",
          "type": "uint256"
        },
        {
          "internalType": "uint256",
          "name": "amountCollected",
          "type": "uint256"
        },
        {
          "internalType": "bool",
          "name": "isHidden",
          "type": "bool"
        }
      ],
      "stateMutability": "view",
      "type": "function"
    },
    {
      "inputs": [
        {
          "internalType": "address",
          "name": "_owner",
          "type": "address"
        },
        {
          "internalType": "string",
          "name": "_title",
          "type": "string"
        },
        {
          "internalType": "string",
          "name": "_description",
          "type": "string"
        },
        {
          "internalType": "string",
          "name": "_image",
          "type": "string"
        },
        {
          "internalType": "uint256",
          "name": "_target",
          "type": "uint256"
        },
        {
          "internalType": "uint256",
          "name": "_deadline",
          "type": "uint256"
        }
      ],
      "name": "createCampaign",
      "outputs": [
        {
          "internalType": "uint256",
          "name": "",
          "type": "uint256"
        }
      ],
      "stateMutability": "nonpayable",
      "type": "function"
    },
    {
      "inputs": [
        {
          "internalType": "uint256",
          "name": "_id",
          "type": "uint256"
        }
      ],
      "name": "donateToCampaign",
      "outputs": [],
      "stateMutability": "payable",
      "type": "function"
    },
    {
      "inputs": [],
      "name": "getCampaigns",
      "outputs": [
        {
          "components": [
            {
              "internalType": "address",
              "name": "owner",
              "type": "address"
            },
            {
              "internalType": "string",
              "name": "title",
              "type": "string"
            },
            {
              "internalType": "string",
              "name": "description",
              "type": "string"
            },
            {
              "internalType": "string",
              "name": "image",
              "type": "string"
            },
            {
              "internalType": "uint256",
              "name": "target",
              "type": "uint256"
            },
            {
              "internalType": "uint256",
              "name": "deadline",
              "type": "uint256"
            },
            {
              "internalType": "uint256",
              "name": "amountCollected",
              "type": "uint256"
            },
            {
              "internalType": "address[]",
              "name": "donators",
              "type": "address[]"
            },
            {
              "internalType": "uint256[]",
              "name": "donations",
              "type": "uint256[]"
            },
            {
              "internalType": "bool",
              "name": "isHidden",
              "type": "bool"
            }
          ],
          "internalType": "struct CrowdFunding.Campaign[]",
          "name": "",
          "type": "tuple[]"
        }
      ],
      "stateMutability": "view",
      "type": "function"
    },
    {
      "inputs": [
        {
          "internalType": "uint256",
          "name": "_id",
          "type": "uint256"
        }
      ],
      "name": "getDonators",
      "outputs": [
        {
          "internalType": "address[]",
          "name": "",
          "type": "address[]"
        },
        {
          "internalType": "uint256[]",
          "name": "",
          "type": "uint256[]"
        }
      ],
      "stateMutability": "view",
      "type": "function"
    },
    {
      "inputs": [],
      "name": "numberOfCampaigns",
      "outputs": [
        {
          "internalType": "uint256",
          "name": "",
          "type": "uint256"
        }
      ],
      "stateMutability": "view",
      "type": "function"
    },
    {
      "inputs": [
        {
          "internalType": "uint256",
          "name": "_id",
          "type": "uint256"
        }
      ],
      "name": "toggleHidden",
      "outputs": [],
      "stateMutability": "nonpayable",
      "type": "function"
    }
  ],
  "bytecode": "0x60806040526000600155348015601457600080fd5b50611e63806100246000396000f3fe6080604052600436106100705760003560e01c806342a4fda81161004e57806342a4fda8146101225780635a8a637d1461013e578063a6b036331461017b578063bbfbeb83146101a657610070565b806307ca140d146100755780630fa91fa9146100a0578063141961bc146100de575b600080fd5b34801561008157600080fd5b5061008a6101cf565b6040516100979190610e87565b60405180910390f35b3480156100ac57600080fd5b506100c760048036038101906100c29190610ee2565b6101d5565b6040516100d59291906110bd565b60405180910390f35b3480156100ea57600080fd5b5061010560048036038101906101009190610ee2565b6102e5565b6040516101199897969594939291906111ae565b60405180910390f35b61013c60048036038101906101379190610ee2565b6104f2565b005b34801561014a57600080fd5b50610165600480360381019061016091906113a2565b610766565b6040516101729190610e87565b60405180910390f35b34801561018757600080fd5b506101906108f5565b60405161019d9190611772565b60405180910390f35b3480156101b257600080fd5b506101cd60048036038101906101c89190610ee2565b610ce0565b005b60015481565b6060806000808481526020019081526020016000206007016000808581526020019081526020016000206008018180548060200260200160405190810160405280929190818152602001828054801561028357602002820191906000526020600020905b8160009054906101000a900473ffffffffffffffffffffffffffffffffffffffff1673ffffffffffffffffffffffffffffffffffffffff1681526020019060010190808311610239575b50505050509150808054806020026020016040519081016040528092919081815260200182805480156102d557602002820191906000526020600020905b8154815260200190600101908083116102c1575b5050505050905091509150915091565b60006020528060005260406000206000915090508060000160009054906101000a900473ffffffffffffffffffffffffffffffffffffffff169080600101805461032e906117c3565b80601f016020809104026020016040519081016040528092919081815260200182805461035a906117c3565b80156103a75780601f1061037c576101008083540402835291602001916103a7565b820191906000526020600020905b81548152906001019060200180831161038a57829003601f168201915b5050505050908060020180546103bc906117c3565b80601f01602080910402602001604051908101604052809291908181526020018280546103e8906117c3565b80156104355780601f1061040a57610100808354040283529160200191610435565b820191906000526020600020905b81548152906001019060200180831161041857829003601f168201915b50505050509080600301805461044a906117c3565b80601f0160208091040260200160405190810160405280929190818152602001828054610476906117c3565b80156104c35780601f10610498576101008083540402835291602001916104c3565b820191906000526020600020905b8154815290600101906020018083116104a657829003601f168201915b5050505050908060040154908060050154908060060154908060090160009054906101000a900460ff16905088565b60003490506000811161053a576040517f08c379a000000000000000000000000000000000000000000000000000000000815260040161053190611840565b60405180910390fd5b6000806000848152602001908152602001600020905080600501544210610596576040517f08c379a000000000000000000000000000000000000000000000000000000000815260040161058d906118ac565b60405180910390fd5b80600701339080600181540180825580915050600190039060005260206000200160009091909190916101000a81548173ffffffffffffffffffffffffffffffffffffffff021916908373ffffffffffffffffffffffffffffffffffffffff1602179055508060080182908060018154018082558091505060019003906000526020600020016000909190919091505560008160000160009054906101000a900473ffffffffffffffffffffffffffffffffffffffff1673ffffffffffffffffffffffffffffffffffffffff1683604051610670906118fd565b60006040518083038185875af1925050503d80600081146106ad576040519150601f19603f3d011682016040523d82523d6000602084013e6106b2565b606091505b50509050806106f6576040517f08c379a00000000000000000000000000000000000000000000000000000000081526004016106ed90611984565b60405180910390fd5b8282600601600082825461070a91906119d3565b925050819055503373ffffffffffffffffffffffffffffffffffffffff16847f0b5b4c52969ff7329ecf7ee536409fda87812b15a8622bc6e8cdeab3aee14a26856040516107589190610e87565b60405180910390a350505050565b60004282116107aa576040517f08c379a00000000000000000000000000000000000000000000000000000000081526004016107a190611a53565b60405180910390fd5b600080600060015481526020019081526020016000209050878160000160006101000a81548173ffffffffffffffffffffffffffffffffffffffff021916908373ffffffffffffffffffffffffffffffffffffffff160217905550868160010190816108169190611c1f565b50858160020190816108289190611c1f565b508481600301908161083a9190611c1f565b508381600401819055508281600501819055506000816006018190555060008160090160006101000a81548160ff021916908315150217905550600060015490506001600081548092919061088e90611cf1565b91905055508873ffffffffffffffffffffffffffffffffffffffff16817fdc26653af5b99b2da33e2ad69ee6600d9aeccc82b034501db4338309615ca2388a88886040516108de93929190611d39565b60405180910390a380925050509695505050505050565b6060600060015467ffffffffffffffff81111561091557610914611277565b5b60405190808252806020026020018201604052801561094e57816020015b61093b610e03565b8152602001906001900390816109335790505b50905060005b600154811015610cd8576000806000838152602001908152602001600020905080604051806101400160405290816000820160009054906101000a900473ffffffffffffffffffffffffffffffffffffffff1673ffffffffffffffffffffffffffffffffffffffff1673ffffffffffffffffffffffffffffffffffffffff1681526020016001820180546109e7906117c3565b80601f0160208091040260200160405190810160405280929190818152602001828054610a13906117c3565b8015610a605780601f10610a3557610100808354040283529160200191610a60565b820191906000526020600020905b815481529060010190602001808311610a4357829003601f168201915b50505050508152602001600282018054610a79906117c3565b80601f0160208091040260200160405190810160405280929190818152602001828054610aa5906117c3565b8015610af25780601f10610ac757610100808354040283529160200191610af2565b820191906000526020600020905b815481529060010190602001808311610ad557829003601f168201915b50505050508152602001600382018054610b0b906117c3565b80601f0160208091040260200160405190810160405280929190818152602001828054610b37906117c3565b8015610b845780601f10610b5957610100808354040283529160200191610b84565b820191906000526020600020905b815481529060010190602001808311610b6757829003601f168201915b5050505050815260200160048201548152602001600582015481526020016006820154815260200160078201805480602002602001604051908101604052809291908181526020018280548015610c3057602002820191906000526020600020905b8160009054906101000a900473ffffffffffffffffffffffffffffffffffffffff1673ffffffffffffffffffffffffffffffffffffffff1681526020019060010190808311610be6575b5050505050815260200160088201805480602002602001604051908101604052809291908181526020018280548015610c8857602002820191906000526020600020905b815481526020019060010190808311610c74575b505050505081526020016009820160009054906101000a900460ff161515151581525050838381518110610cbf57610cbe611d77565b5b6020026020010181905250508080600101915050610954565b508091505090565b600080600083815260200190815260200160002090508060000160009054906101000a900473ffffffffffffffffffffffffffffffffffffffff1673ffffffffffffffffffffffffffffffffffffffff163373ffffffffffffffffffffffffffffffffffffffff1614610d88576040517f08c379a0000000000000000000000000000000000000000000000000000000008152600401610d7f90611df2565b60405180910390fd5b8060090160009054906101000a900460ff16158160090160006101000a81548160ff021916908315150217905550817f430fb554251ee3dfcbaf68a420575cd2319c6797bf9447fa6f9d14d71eeca7b58260090160009054906101000a900460ff16604051610df79190611e12565b60405180910390a25050565b604051806101400160405280600073ffffffffffffffffffffffffffffffffffffffff16815260200160608152602001606081526020016060815260200160008152602001600081526020016000815260200160608152602001606081526020016000151581525090565b6000819050919050565b610e8181610e6e565b82525050565b6000602082019050610e9c6000830184610e78565b92915050565b6000604051905090565b600080fd5b600080fd5b610ebf81610e6e565b8114610eca57600080fd5b50565b600081359050610edc81610eb6565b92915050565b600060208284031215610ef857610ef7610eac565b5b6000610f0684828501610ecd565b91505092915050565b600081519050919050565b600082825260208201905092915050565b6000819050602082019050919050565b600073ffffffffffffffffffffffffffffffffffffffff82169050919050565b6000610f6682610f3b565b9050919050565b610f7681610f5b565b82525050565b6000610f888383610f6d565b60208301905092915050565b6000602082019050919050565b6000610fac82610f0f565b610fb68185610f1a565b9350610fc183610f2b565b8060005b83811015610ff2578151610fd98882610f7c565b9750610fe483610f94565b925050600181019050610fc5565b5085935050505092915050565b600081519050919050565b600082825260208201905092915050565b6000819050602082019050919050565b61103481610e6e565b82525050565b6000611046838361102b565b60208301905092915050565b6000602082019050919050565b600061106a82610fff565b611074818561100a565b935061107f8361101b565b8060005b838110156110b0578151611097888261103a565b97506110a283611052565b925050600181019050611083565b5085935050505092915050565b600060408201905081810360008301526110d78185610fa1565b905081810360208301526110eb818461105f565b90509392505050565b6110fd81610f5b565b82525050565b600081519050919050565b600082825260208201905092915050565b60005b8381101561113d578082015181840152602081019050611122565b60008484015250505050565b6000601f19601f8301169050919050565b600061116582611103565b61116f818561110e565b935061117f81856020860161111f565b61118881611149565b840191505092915050565b60008115159050919050565b6111a881611193565b82525050565b6000610100820190506111c4600083018b6110f4565b81810360208301526111d6818a61115a565b905081810360408301526111ea818961115a565b905081810360608301526111fe818861115a565b905061120d6080830187610e78565b61121a60a0830186610e78565b61122760c0830185610e78565b61123460e083018461119f565b9998505050505050505050565b61124a81610f5b565b811461125557600080fd5b50565b60008135905061126781611241565b92915050565b600080fd5b600080fd5b7f4e487b7100000000000000000000000000000000000000000000000000000000600052604160045260246000fd5b6112af82611149565b810181811067ffffffffffffffff821117156112ce576112cd611277565b5b80604052505050565b60006112e1610ea2565b90506112ed82826112a6565b919050565b600067ffffffffffffffff82111561130d5761130c611277565b5b61131682611149565b9050602081019050919050565b82818337600083830152505050565b6000611345611340846112f2565b6112d7565b90508281526020810184848401111561136157611360611272565b5b61136c848285611323565b509392505050565b600082601f8301126113895761138861126d565b5b8135611399848260208601611332565b91505092915050565b60008060008060008060c087890312156113bf576113be610eac565b5b60006113cd89828a01611258565b965050602087013567ffffffffffffffff8111156113ee576113ed610eb1565b5b6113fa89828a01611374565b955050604087013567ffffffffffffffff81111561141b5761141a610eb1565b5b61142789828a01611374565b945050606087013567ffffffffffffffff81111561144857611447610eb1565b5b61145489828a01611374565b935050608061146589828a01610ecd565b92505060a061147689828a01610ecd565b9150509295509295509295565b600081519050919050565b600082825260208201905092915050565b6000819050602082019050919050565b600082825260208201905092915050565b60006114cb82611103565b6114d581856114af565b93506114e581856020860161111f565b6114ee81611149565b840191505092915050565b600082825260208201905092915050565b600061151582610f0f565b61151f81856114f9565b935061152a83610f2b565b8060005b8381101561155b5781516115428882610f7c565b975061154d83610f94565b92505060018101905061152e565b5085935050505092915050565b600082825260208201905092915050565b600061158482610fff565b61158e8185611568565b93506115998361101b565b8060005b838110156115ca5781516115b1888261103a565b97506115bc83611052565b92505060018101905061159d565b5085935050505092915050565b6115e081611193565b82525050565b6000610140830160008301516115ff6000860182610f6d565b506020830151848203602086015261161782826114c0565b9150506040830151848203604086015261163182826114c0565b9150506060830151848203606086015261164b82826114c0565b9150506080830151611660608086018261102b565b5060a083015161167360a086018261102b565b5060c083015161168660c086018261102b565b5060e083015184820360e086015261169e828261150a565b9150506101008301518482036101008601526116ba8282611579565b9150506101208301516116d16101208601826115d7565b508091505092915050565b60006116e883836115e6565b905092915050565b6000602082019050919050565b600061170882611483565b611712818561148e565b9350836020820285016117248561149f565b8060005b85811015611760578484038952815161174185826116dc565b945061174c836116f0565b925060208a01995050600181019050611728565b50829750879550505050505092915050565b6000602082019050818103600083015261178c81846116fd565b905092915050565b7f4e487b7100000000000000000000000000000000000000000000000000000000600052602260045260246000fd5b600060028204905060018216806117db57607f821691505b6020821081036117ee576117ed611794565b5b50919050565b7f446f6e6174696f6e206d7573742062652067726561746572207468616e203000600082015250565b600061182a601f8361110e565b9150611835826117f4565b602082019050919050565b600060208201905081810360008301526118598161181d565b9050919050565b7f43616d706169676e2068617320656e6465640000000000000000000000000000600082015250565b600061189660128361110e565b91506118a182611860565b602082019050919050565b600060208201905081810360008301526118c581611889565b9050919050565b600081905092915050565b50565b60006118e76000836118cc565b91506118f2826118d7565b600082019050919050565b6000611908826118da565b9150819050919050565b7f4661696c656420746f2073656e6420457468657220746f2063616d706169676e60008201527f206f776e65720000000000000000000000000000000000000000000000000000602082015250565b600061196e60268361110e565b915061197982611912565b604082019050919050565b6000602082019050818103600083015261199d81611961565b9050919050565b7f4e487b7100000000000000000000000000000000000000000000000000000000600052601160045260246000fd5b60006119de82610e6e565b91506119e983610e6e565b9250828201905080821115611a0157611a006119a4565b5b92915050565b7f446561646c696e65206d75737420626520696e20746865206675747572650000600082015250565b6000611a3d601e8361110e565b9150611a4882611a07565b602082019050919050565b60006020820190508181036000830152611a6c81611a30565b9050919050565b60008190508160005260206000209050919050565b60006020601f8301049050919050565b600082821b905092915050565b600060088302611ad57fffffffffffffffffffffffffffffffffffffffffffffffffffffffffffffffff82611a98565b611adf8683611a98565b95508019841693508086168417925050509392505050565b6000819050919050565b6000611b1c611b17611b1284610e6e565b611af7565b610e6e565b9050919050565b6000819050919050565b611b3683611b01565b611b4a611b4282611b23565b848454611aa5565b825550505050565b600090565b611b5f611b52565b611b6a818484611b2d565b505050565b5b81811015611b8e57611b83600082611b57565b600181019050611b70565b5050565b601f821115611bd357611ba481611a73565b611bad84611a88565b81016020851015611bbc578190505b611bd0611bc885611a88565b830182611b6f565b50505b505050565b600082821c905092915050565b6000611bf660001984600802611bd8565b1980831691505092915050565b6000611c0f8383611be5565b9150826002028217905092915050565b611c2882611103565b67ffffffffffffffff811115611c4157611c40611277565b5b611c4b82546117c3565b611c56828285611b92565b600060209050601f831160018114611c895760008415611c77578287015190505b611c818582611c03565b865550611ce9565b601f198416611c9786611a73565b60005b82811015611cbf57848901518255600182019150602085019450602081019050611c9a565b86831015611cdc5784890151611cd8601f891682611be5565b8355505b6001600288020188555050505b505050505050565b6000611cfc82610e6e565b91507fffffffffffffffffffffffffffffffffffffffffffffffffffffffffffffffff8203611d2e57611d2d6119a4565b5b600182019050919050565b60006060820190508181036000830152611d53818661115a565b9050611d626020830185610e78565b611d6f6040830184610e78565b949350505050565b7f4e487b7100000000000000000000000000000000000000000000000000000000600052603260045260246000fd5b7f4f6e6c79206f776e65722063616e20746f67676c65207669736962696c697479600082015250565b6000611ddc60208361110e565b9150611de782611da6565b602082019050919050565b60006020820190508181036000830152611e0b81611dcf565b9050919050565b6000602082019050611e27600083018461119f565b9291505056fea264697066735822122038c4e2a9846fbfda84354b3750fc196cbbbc030a6cd03ed4517cdd54eb10cfd864736f6c634300081c0033",
  "linkReferences": {},
  "deployedLinkReferences": {}
}