{
  "_format": "hh-sol-artifact-1",
  "contractName": "CrowdFunding",
  "sourceName": "contracts/CrowdFunding.sol",
  "abi": [
    {
      "inputs": [
        {
          "internalType": "uint256",
          "name": "",
          "type": "uint256"
        }
      ],
      "name": "campaigns",
      "outputs": [
        {
          "internalType": "address",
          "name": "owner",
          "type": "address"
        },
        {
          "internalType": "string",
          "name": "title",
          "type": "string"
        },
        {
          "internalType": "string",
          "name": "description",
          "type": "string"
        },
        {
          "internalType": "string",
          "name": "image",
          "type": "string"
        },
        {
          "internalType": "uint256",
          "name": "target",
          "type": "uint256"
        },
        {
          "internalType": "uint256",
          "name": "deadline",
          "type": "uint256"
        },
        {
          "internalType": "uint256",
          "name": "amountCollected",
          "type": "uint256"
        },
        {
          "internalType": "bool",
          "name": "isHidden",
          "type": "bool"
        }
      ],
      "stateMutability": "view",
      "type": "function"
    },
    {
      "inputs": [
        {
          "internalType": "address",
          "name": "_owner",
          "type": "address"
        },
        {
          "internalType": "string",
          "name": "_title",
          "type": "string"
        },
        {
          "internalType": "string",
          "name": "_description",
          "type": "string"
        },
        {
          "internalType": "string",
          "name": "_image",
          "type": "string"
        },
        {
          "internalType": "uint256",
          "name": "_target",
          "type": "uint256"
        },
        {
          "internalType": "uint256",
          "name": "_deadline",
          "type": "uint256"
        }
      ],
      "name": "createCampaign",
      "outputs": [
        {
          "internalType": "uint256",
          "name": "",
          "type": "uint256"
        }
      ],
      "stateMutability": "nonpayable",
      "type": "function"
    },
    {
      "inputs": [
        {
          "internalType": "uint256",
          "name": "_id",
          "type": "uint256"
        }
      ],
      "name": "donateToCampaign",
      "outputs": [],
      "stateMutability": "payable",
      "type": "function"
    },
    {
      "inputs": [],
      "name": "getCampaigns",
      "outputs": [
        {
          "internalType": "address[]",
          "name": "owners",
          "type": "address[]"
        },
        {
          "internalType": "string[]",
          "name": "titles",
          "type": "string[]"
        },
        {
          "internalType": "string[]",
          "name": "descriptions",
          "type": "string[]"
        },
        {
          "internalType": "string[]",
          "name": "images",
          "type": "string[]"
        },
        {
          "internalType": "uint256[]",
          "name": "targets",
          "type": "uint256[]"
        },
        {
          "internalType": "uint256[]",
          "name": "deadlines",
          "type": "uint256[]"
        },
        {
          "internalType": "uint256[]",
          "name": "amountsCollected",
          "type": "uint256[]"
        },
        {
          "internalType": "bool[]",
          "name": "isHiddens",
          "type": "bool[]"
        }
      ],
      "stateMutability": "view",
      "type": "function"
    },
    {
      "inputs": [
        {
          "internalType": "uint256",
          "name": "_id",
          "type": "uint256"
        }
      ],
      "name": "getDonators",
      "outputs": [
        {
          "internalType": "address[]",
          "name": "",
          "type": "address[]"
        },
        {
          "internalType": "uint256[]",
          "name": "",
          "type": "uint256[]"
        }
      ],
      "stateMutability": "view",
      "type": "function"
    },
    {
      "inputs": [],
      "name": "numberOfCampaigns",
      "outputs": [
        {
          "internalType": "uint256",
          "name": "",
          "type": "uint256"
        }
      ],
      "stateMutability": "view",
      "type": "function"
    },
    {
      "inputs": [
        {
          "internalType": "uint256",
          "name": "_id",
          "type": "uint256"
        }
      ],
      "name": "toggleHidden",
      "outputs": [],
      "stateMutability": "nonpayable",
      "type": "function"
    }
  ],
  "bytecode": "0x60806040526000600155348015601457600080fd5b50611c29806100246000396000f3fe6080604052600436106100705760003560e01c8063141961bc1161004e578063141961bc1461011b57806342a4fda81461015d578063a1e5084c14610179578063a6b03633146101b657610070565b8063075843c31461007557806307ca140d146100b25780630fa91fa9146100dd575b600080fd5b34801561008157600080fd5b5061009c6004803603810190610097919061109d565b6101e1565b6040516100a9919061115f565b60405180910390f35b3480156100be57600080fd5b506100c76102f5565b6040516100d4919061115f565b60405180910390f35b3480156100e957600080fd5b5061010460048036038101906100ff919061117a565b6102fb565b604051610112929190611323565b60405180910390f35b34801561012757600080fd5b50610142600480360381019061013d919061117a565b61040b565b604051610154969594939291906113e8565b60405180910390f35b6101776004803603810190610172919061117a565b610577565b005b34801561018557600080fd5b506101a0600480360381019061019b9190611457565b6106d7565b6040516101ad9190611733565b60405180910390f35b3480156101c257600080fd5b506101cb610b1c565b6040516101d89190611733565b60405180910390f35b6000806000806001548152602001908152602001600020905042816004015410610240576040517f08c379a0000000000000000000000000000000000000000000000000000000008152600401610237906117a1565b60405180910390fd5b868160000160006101000a81548173ffffffffffffffffffffffffffffffffffffffff021916908373ffffffffffffffffffffffffffffffffffffffff1602179055508581600101908161029491906119cd565b50848160020190816102a691906119cd565b5083816003018190555082816004018190555060008160050181905550600160008154809291906102d690611ace565b9190505550600180546102e99190611b16565b91505095945050505050565b60015481565b606080600080848152602001908152602001600020600601600080858152602001908152602001600020600701818054806020026020016040519081016040528092919081815260200182805480156103a957602002820191906000526020600020905b8160009054906101000a900473ffffffffffffffffffffffffffffffffffffffff1673ffffffffffffffffffffffffffffffffffffffff168152602001906001019080831161035f575b50505050509150808054806020026020016040519081016040528092919081815260200182805480156103fb57602002820191906000526020600020905b8154815260200190600101908083116103e7575b5050505050905091509150915091565b60006020528060005260406000206000915090508060000160009054906101000a900473ffffffffffffffffffffffffffffffffffffffff1690806001018054610454906117f0565b80601f0160208091040260200160405190810160405280929190818152602001828054610480906117f0565b80156104cd5780601f106104a2576101008083540402835291602001916104cd565b820191906000526020600020905b8154815290600101906020018083116104b057829003601f168201915b5050505050908060020180546104e2906117f0565b80601f016020809104026020016040519081016040528092919081815260200182805461050e906117f0565b801561055b5780601f106105305761010080835404028352916020019161055b565b820191906000526020600020905b81548152906001019060200180831161053e57829003601f168201915b5050505050908060030154908060040154908060050154905086565b60003490506000806000848152602001908152602001600020905080600601339080600181540180825580915050600190039060005260206000200160009091909190916101000a81548173ffffffffffffffffffffffffffffffffffffffff021916908373ffffffffffffffffffffffffffffffffffffffff1602179055508060070182908060018154018082558091505060019003906000526020600020016000909190919091505560008160000160009054906101000a900473ffffffffffffffffffffffffffffffffffffffff1673ffffffffffffffffffffffffffffffffffffffff168360405161066c90611b7b565b60006040518083038185875af1925050503d80600081146106a9576040519150601f19603f3d011682016040523d82523d6000602084013e6106ae565b606091505b5050905080156106d1578282600501546106c89190611b90565b82600501819055505b50505050565b60606000805b60015481101561076b578373ffffffffffffffffffffffffffffffffffffffff1660008083815260200190815260200160002060000160009054906101000a900473ffffffffffffffffffffffffffffffffffffffff1673ffffffffffffffffffffffffffffffffffffffff160361075e57818061075a90611ace565b9250505b80806001019150506106dd565b5060008167ffffffffffffffff81111561078857610787610f3c565b5b6040519080825280602002602001820160405280156107c157816020015b6107ae610e54565b8152602001906001900390816107a65790505b5090506000805b600154811015610b10578573ffffffffffffffffffffffffffffffffffffffff1660008083815260200190815260200160002060000160009054906101000a900473ffffffffffffffffffffffffffffffffffffffff1673ffffffffffffffffffffffffffffffffffffffff1603610b0357600080828152602001908152602001600020604051806101000160405290816000820160009054906101000a900473ffffffffffffffffffffffffffffffffffffffff1673ffffffffffffffffffffffffffffffffffffffff1673ffffffffffffffffffffffffffffffffffffffff1681526020016001820180546108be906117f0565b80601f01602080910402602001604051908101604052809291908181526020018280546108ea906117f0565b80156109375780601f1061090c57610100808354040283529160200191610937565b820191906000526020600020905b81548152906001019060200180831161091a57829003601f168201915b50505050508152602001600282018054610950906117f0565b80601f016020809104026020016040519081016040528092919081815260200182805461097c906117f0565b80156109c95780601f1061099e576101008083540402835291602001916109c9565b820191906000526020600020905b8154815290600101906020018083116109ac57829003601f168201915b5050505050815260200160038201548152602001600482015481526020016005820154815260200160068201805480602002602001604051908101604052809291908181526020018280548015610a7557602002820191906000526020600020905b8160009054906101000a900473ffffffffffffffffffffffffffffffffffffffff1673ffffffffffffffffffffffffffffffffffffffff1681526020019060010190808311610a2b575b5050505050815260200160078201805480602002602001604051908101604052809291908181526020018280548015610acd57602002820191906000526020600020905b815481526020019060010190808311610ab9575b505050505081525050838381518110610ae957610ae8611bc4565b5b60200260200101819052508180610aff90611ace565b9250505b80806001019150506107c8565b50819350505050919050565b6060600060015467ffffffffffffffff811115610b3c57610b3b610f3c565b5b604051908082528060200260200182016040528015610b7557816020015b610b62610e54565b815260200190600190039081610b5a5790505b50905060005b600154811015610e4c57600080828152602001908152602001600020604051806101000160405290816000820160009054906101000a900473ffffffffffffffffffffffffffffffffffffffff1673ffffffffffffffffffffffffffffffffffffffff1673ffffffffffffffffffffffffffffffffffffffff168152602001600182018054610c09906117f0565b80601f0160208091040260200160405190810160405280929190818152602001828054610c35906117f0565b8015610c825780601f10610c5757610100808354040283529160200191610c82565b820191906000526020600020905b815481529060010190602001808311610c6557829003601f168201915b50505050508152602001600282018054610c9b906117f0565b80601f0160208091040260200160405190810160405280929190818152602001828054610cc7906117f0565b8015610d145780601f10610ce957610100808354040283529160200191610d14565b820191906000526020600020905b815481529060010190602001808311610cf757829003601f168201915b5050505050815260200160038201548152602001600482015481526020016005820154815260200160068201805480602002602001604051908101604052809291908181526020018280548015610dc057602002820191906000526020600020905b8160009054906101000a900473ffffffffffffffffffffffffffffffffffffffff1673ffffffffffffffffffffffffffffffffffffffff1681526020019060010190808311610d76575b5050505050815260200160078201805480602002602001604051908101604052809291908181526020018280548015610e1857602002820191906000526020600020905b815481526020019060010190808311610e04575b505050505081525050828281518110610e3457610e33611bc4565b5b60200260200101819052508080600101915050610b7b565b508091505090565b604051806101000160405280600073ffffffffffffffffffffffffffffffffffffffff168152602001606081526020016060815260200160008152602001600081526020016000815260200160608152602001606081525090565b6000604051905090565b600080fd5b600080fd5b600073ffffffffffffffffffffffffffffffffffffffff82169050919050565b6000610eee82610ec3565b9050919050565b610efe81610ee3565b8114610f0957600080fd5b50565b600081359050610f1b81610ef5565b92915050565b600080fd5b600080fd5b6000601f19601f8301169050919050565b7f4e487b7100000000000000000000000000000000000000000000000000000000600052604160045260246000fd5b610f7482610f2b565b810181811067ffffffffffffffff82111715610f9357610f92610f3c565b5b80604052505050565b6000610fa6610eaf565b9050610fb28282610f6b565b919050565b600067ffffffffffffffff821115610fd257610fd1610f3c565b5b610fdb82610f2b565b9050602081019050919050565b82818337600083830152505050565b600061100a61100584610fb7565b610f9c565b90508281526020810184848401111561102657611025610f26565b5b611031848285610fe8565b509392505050565b600082601f83011261104e5761104d610f21565b5b813561105e848260208601610ff7565b91505092915050565b6000819050919050565b61107a81611067565b811461108557600080fd5b50565b60008135905061109781611071565b92915050565b600080600080600060a086880312156110b9576110b8610eb9565b5b60006110c788828901610f0c565b955050602086013567ffffffffffffffff8111156110e8576110e7610ebe565b5b6110f488828901611039565b945050604086013567ffffffffffffffff81111561111557611114610ebe565b5b61112188828901611039565b935050606061113288828901611088565b925050608061114388828901611088565b9150509295509295909350565b61115981611067565b82525050565b60006020820190506111746000830184611150565b92915050565b6000602082840312156111905761118f610eb9565b5b600061119e84828501611088565b91505092915050565b600081519050919050565b600082825260208201905092915050565b6000819050602082019050919050565b6111dc81610ee3565b82525050565b60006111ee83836111d3565b60208301905092915050565b6000602082019050919050565b6000611212826111a7565b61121c81856111b2565b9350611227836111c3565b8060005b8381101561125857815161123f88826111e2565b975061124a836111fa565b92505060018101905061122b565b5085935050505092915050565b600081519050919050565b600082825260208201905092915050565b6000819050602082019050919050565b61129a81611067565b82525050565b60006112ac8383611291565b60208301905092915050565b6000602082019050919050565b60006112d082611265565b6112da8185611270565b93506112e583611281565b8060005b838110156113165781516112fd88826112a0565b9750611308836112b8565b9250506001810190506112e9565b5085935050505092915050565b6000604082019050818103600083015261133d8185611207565b9050818103602083015261135181846112c5565b90509392505050565b61136381610ee3565b82525050565b600081519050919050565b600082825260208201905092915050565b60005b838110156113a3578082015181840152602081019050611388565b60008484015250505050565b60006113ba82611369565b6113c48185611374565b93506113d4818560208601611385565b6113dd81610f2b565b840191505092915050565b600060c0820190506113fd600083018961135a565b818103602083015261140f81886113af565b9050818103604083015261142381876113af565b90506114326060830186611150565b61143f6080830185611150565b61144c60a0830184611150565b979650505050505050565b60006020828403121561146d5761146c610eb9565b5b600061147b84828501610f0c565b91505092915050565b600081519050919050565b600082825260208201905092915050565b6000819050602082019050919050565b600082825260208201905092915050565b60006114cc82611369565b6114d681856114b0565b93506114e6818560208601611385565b6114ef81610f2b565b840191505092915050565b600082825260208201905092915050565b6000611516826111a7565b61152081856114fa565b935061152b836111c3565b8060005b8381101561155c57815161154388826111e2565b975061154e836111fa565b92505060018101905061152f565b5085935050505092915050565b600082825260208201905092915050565b600061158582611265565b61158f8185611569565b935061159a83611281565b8060005b838110156115cb5781516115b288826112a0565b97506115bd836112b8565b92505060018101905061159e565b5085935050505092915050565b6000610100830160008301516115f160008601826111d3565b506020830151848203602086015261160982826114c1565b9150506040830151848203604086015261162382826114c1565b91505060608301516116386060860182611291565b50608083015161164b6080860182611291565b5060a083015161165e60a0860182611291565b5060c083015184820360c0860152611676828261150b565b91505060e083015184820360e0860152611690828261157a565b9150508091505092915050565b60006116a983836115d8565b905092915050565b6000602082019050919050565b60006116c982611484565b6116d3818561148f565b9350836020820285016116e5856114a0565b8060005b858110156117215784840389528151611702858261169d565b945061170d836116b1565b925060208a019950506001810190506116e9565b50829750879550505050505092915050565b6000602082019050818103600083015261174d81846116be565b905092915050565b7f446561646c696e652063616e277420626520696e207468652070617374000000600082015250565b600061178b601d83611374565b915061179682611755565b602082019050919050565b600060208201905081810360008301526117ba8161177e565b9050919050565b7f4e487b7100000000000000000000000000000000000000000000000000000000600052602260045260246000fd5b6000600282049050600182168061180857607f821691505b60208210810361181b5761181a6117c1565b5b50919050565b60008190508160005260206000209050919050565b60006020601f8301049050919050565b600082821b905092915050565b6000600883026118837fffffffffffffffffffffffffffffffffffffffffffffffffffffffffffffffff82611846565b61188d8683611846565b95508019841693508086168417925050509392505050565b6000819050919050565b60006118ca6118c56118c084611067565b6118a5565b611067565b9050919050565b6000819050919050565b6118e4836118af565b6118f86118f0826118d1565b848454611853565b825550505050565b600090565b61190d611900565b6119188184846118db565b505050565b5b8181101561193c57611931600082611905565b60018101905061191e565b5050565b601f8211156119815761195281611821565b61195b84611836565b8101602085101561196a578190505b61197e61197685611836565b83018261191d565b50505b505050565b600082821c905092915050565b60006119a460001984600802611986565b1980831691505092915050565b60006119bd8383611993565b9150826002028217905092915050565b6119d682611369565b67ffffffffffffffff8111156119ef576119ee610f3c565b5b6119f982546117f0565b611a04828285611940565b600060209050601f831160018114611a375760008415611a25578287015190505b611a2f85826119b1565b865550611a97565b601f198416611a4586611821565b60005b82811015611a6d57848901518255600182019150602085019450602081019050611a48565b86831015611a8a5784890151611a86601f891682611993565b8355505b6001600288020188555050505b505050505050565b7f4e487b7100000000000000000000000000000000000000000000000000000000600052601160045260246000fd5b6000611ad982611067565b91507fffffffffffffffffffffffffffffffffffffffffffffffffffffffffffffffff8203611b0b57611b0a611a9f565b5b600182019050919050565b6000611b2182611067565b9150611b2c83611067565b9250828203905081811115611b4457611b43611a9f565b5b92915050565b600081905092915050565b50565b6000611b65600083611b4a565b9150611b7082611b55565b600082019050919050565b6000611b8682611b58565b9150819050919050565b6000611b9b82611067565b9150611ba683611067565b9250828201905080821115611bbe57611bbd611a9f565b5b92915050565b7f4e487b7100000000000000000000000000000000000000000000000000000000600052603260045260246000fdfea26469706673582212208e19d4b082ff1b87cb9843c776196bd7eafa9b2dc6c039528d7a0b3f258dd14f64736f6c634300081c0033",
  "linkReferences": {},
  "deployedLinkReferences": {}
}